:020000040800F2
:1000000000500020BD0A0008050B0008050B000881
:10001000050B0008050B0008050B00080000000098
:10002000000000000000000000000000050B0008B8
:10003000050B000800000000050B0008E1010008A6
:10004000050B0008050B0008050B0008050B000850
:10005000050B0008050B0008050B0008050B000840
:10006000050B0008050B0008050B0008050B000830
:10007000050B0008050B0008050B0008050B000820
:10008000050B0008050B0008050B0008050B000810
:10009000050B0008050B0008050B0008050B000800
:1000A000050B0008050B0008050B0008050B0008F0
:1000B000050B0008050B0008050B0008050B0008E0
:1000C000050B0008050B0008050B0008050B0008D0
:1000D000050B0008050B0008050B0008050B0008C0
:1000E000050B0008050B0008050B000800000000C8
:1000F0000000000000000000000000000000000000
:0C01000000000000000000005FF808F1A3
:10010C000348044B834202D0034B03B1184770479A
:10011C000C0000200C000020000000000548064BDD
:10012C001B1AD90F01EBA301491002D0034B03B1E9
:10013C00184770470C0000200C0000200000000045
:10014C0010B5064C237843B9FFF7DAFF044B13B113
:10015C000448AFF300800123237010BD0C00002075
:10016C0000000000080B000808B5054B1BB1054941
:10017C000548AFF30080BDE80840FFF7CFBF00BFD4
:10018C000000000010000020080B000870B50026CD
:10019C000C4D0D4B5B1B9C10A64209D1002600F0A8
:1001AC00ADFC0A4D0A4B5B1B9C10A64205D170BDE1
:1001BC0055F8043B98470136EEE755F8043B984751
:1001CC000136F2E7D00B0008D00B0008D00B00086A
:1001DC00D40B000880B500AF00F08CF800BF80BDD8
:1001EC0080B586B000AF00F039F8164B9B69154A04
:1001FC0043F010039361134B9B6903F010037B6076
:10020C007B6807F1080300221A605A609A60DA6072
:10021C004FF40053BB600123FB6000233B610223BE
:10022C007B6107F108031946074800F0A3F84FF467
:10023C000051054800F00CFBC82000F077F800BF17
:10024C00F5E700BF001002400010014080B483B0FD
:10025C0000AF7860396000BFFDE7000080B500AFEB
:10026C00084B1B68074A43F010031360032000F08F
:10027C00C1FB0F2000F00EF800F006F80023184622
:10028C0080BD00BF0020024080B400AF00BFBD465F
:10029C0080BC704780B582B000AF7860124B1A6892
:1002AC00124B1B7819464FF47A73B3FBF1F3B2FB84
:1002BC00F3F3184600F0EAFB0346002B01D00123B0
:1002CC000EE07B680F2B0AD8002279684FF0FF30C4
:1002DC0000F0B0FB064A7B681360002300E00123AA
:1002EC0018460837BD4680BD0800002004000020D9
:1002FC000000002080B400AF054B1B781A46054B5C
:10030C001B681344034A136000BFBD4680BC704792
:10031C00040000202800002080B400AF024B1B68B2
:10032C001846BD4680BC70472800002080B584B0BC
:10033C0000AF7860FFF7F0FFB8607B68FB60FB688C
:10034C00B3F1FF3F05D00A4B1B781A46FB681344E8
:10035C00FB6000BFFFF7E0FF0246BB68D31AFA68E8
:10036C009A42F7D800BF00BF1037BD4680BD00BF12
:10037C000400002080B58AB000AF7860396000239B
:10038C007B6200233B627B68964A934213D07B6866
:10039C00954A93420FD07B68944A93420BD07B686A
:1003AC00934A934207D07B68924A934203D0BD2173
:1003BC009148FFF74BFF3B681B689BB2002B04D0A6
:1003CC003B681B68B3F5803F03D3BE218A48FFF717
:1003DC003DFF3B685B68002B00F01D823B685B684F
:1003EC00012B00F018823B685B68112B00F0138224
:1003FC003B685B68022B00F00E823B685B68122B3B
:10040C0000F009823B685B687C4A934200F00382EF
:10041C003B685B687A4A934200F0FD813B685B68FD
:10042C00784A934200F0F7813B685B68764A9342C6
:10043C0000F0F1813B685B68744A934200F0EB81F9
:10044C003B685B68724A934200F0E5813B685B68ED
:10045C00032B00F0E081BF216748FFF7F7FEDAE1DC
:10046C0001227B6A02FA03F3FB613B681B68FA69A1
:10047C001340BB61BA69FB699A4240F0C9817B6841
:10048C00584A934213D07B68574A93420FD07B68EB
:10049C00564A93420BD07B68554A934207D07B68EF
:1004AC00544A934203D0CD215348FFF7CFFE3B680B
:1004BC005B68574A934200F0C280554A934200F25F
:1004CC00E880504A934200F0BA804E4A934200F2C0
:1004DC00E0804E4A934200F0B2804C4A934200F2C4
:1004EC00D880474A934200F0AA80454A934200F2D2
:1004FC00D080454A934200F0A280434A934200F2D6
:10050C00C880122B2CD8122B00F2C38001A252F8F7
:10051C0023F000BF4B06000875050008C70500084E
:10052C00990600089F0600089F0600089F06000811
:10053C009F0600089F0600089F0600089F060008FB
:10054C009F0600089F0600089F0600089F060008EB
:10055C009F0600089F0600089D050008210600085C
:10056C00264A93426BD094E03B68DB68022B0BD09D
:10057C003B68DB68012B07D03B68DB68032B03D09F
:10058C00D5211D48FFF762FE3B68DB683B6281E0CA
:10059C003B68DB68022B0BD03B68DB68012B07D078
:1005AC003B68DB68032B03D0DC211348FFF74EFEBE
:1005BC003B68DB6804333B626CE03B68DB68022B16
:1005CC000BD03B68DB68012B07D03B68DB68032B47
:1005DC0003D0E3210848FFF739FE3B68DB6808339A
:1005EC003B6257E000080140000C01400010014044
:1005FC000014014000180140200B000800001110ED
:10060C000000211000003110000012100000221018
:10061C00000032103B68DB68022B0BD03B68DB68B8
:10062C00012B07D03B68DB68032B03D0EA21804801
:10063C00FFF70CFE3B68DB680C333B622AE03B683F
:10064C009B68002B0BD03B689B68012B07D03B6849
:10065C009B68022B03D0F7217548FFF7F7FD3B6829
:10066C009B68002B02D104233B6213E03B689B6820
:10067C00012B05D108233B627B68FA691A6109E0FA
:10068C0008233B627B68FA695A6103E000233B62F2
:10069C0000E000BFBB69FF2B01D87B6801E07B68E1
:1006AC0004337B61BB69FF2B02D87B6A9B0002E0A1
:1006BC007B6A083B9B003B617B691A680F213B6995
:1006CC0001FA03F3DB431A40396A3B6901FA03F37D
:1006DC001A437B691A603B685B6803F08053002BFC
:1006EC0000F09680534B9B69524A43F0010393618F
:1006FC00504B9B6903F00103BB60BB684E4A7B6A9D
:10070C009B08023352F82330FB607B6A03F003032F
:10071C009B000F2202FA03F3DB43FA681340FB60E1
:10072C007B68464A934213D07B68454A93420DD06E
:10073C007B68444A934207D07B68434A934201D179
:10074C00032306E0042304E0022302E0012300E07B
:10075C0000237A6A02F0030292009340FA68134372
:10076C00FB6035497B6A9B080233FA6841F8232009
:10077C003B685B6803F48013002B06D0334B9A68FC
:10078C003249BB6913438B6006E0304B9A68BB69F6
:10079C00DB432E4913408B603B685B6803F400130A
:1007AC00002B06D0294BDA682849BB691343CB6070
:1007BC0006E0264BDA68BB69DB4324491340CB6067
:1007CC003B685B6803F40033002B06D01F4B5A6860
:1007DC001E49BB6913434B6006E01C4B5A68BB694E
:1007EC00DB431A4913404B603B685B6803F480336E
:1007FC00002B06D0154B1A681449BB6913430B60C8
:10080C0006E0124B1A68BB69DB43104913400B60BE
:10081C007B6A01337B623B681A687B6A22FA03F3BA
:10082C00002B7FF41DAE00BF00BF2837BD4680BD36
:10083C00200B00080010024000000140000801409D
:10084C00000C014000100140001401400004014064
:10085C0080B584B000AF78600B467B807B88002B22
:10086C0004D14FF4F6710A48FFF7F0FC7B68DB68A3
:10087C00FB607A88FB6813401A04FB68D9437B88B9
:10088C000B401A437B681A6100BF1037BD4680BD10
:10089C00200B000880B485B000AF78607B6803F053
:1008AC000703FB600C4BDB68BB60BA684FF6FF03B9
:1008BC001340BB60FB681A02BB68134343F0BF6371
:1008CC0043F40033BB60044ABB68D36000BF1437E9
:1008DC00BD4680BC704700BF00ED00E080B400AFA7
:1008EC00044BDB681B0A03F007031846BD4680BCAB
:1008FC00704700BF00ED00E080B483B000AF03464A
:10090C003960FB7197F90730002B0ADB3B68DAB2D0
:10091C000C4997F907301201D2B20B4483F800232B
:10092C000AE03B68DAB20849FB7903F00F03043B99
:10093C001201D2B20B441A7600BF0C37BD4680BCF4
:10094C00704700BF00E100E000ED00E080B489B02A
:10095C0000AFF860B9607A60FB6803F00703FB61D5
:10096C00FB69C3F10703042B28BF0423BB61FB699C
:10097C000433062B02D9FB69033B00E000237B61A7
:10098C004FF0FF32BB6902FA03F3DA43BB681A403B
:10099C007B699A404FF0FF317B6901FA03F3D9432D
:1009AC007B680B40134318462437BD4680BC704708
:1009BC0080B582B000AF78607B68013BB3F1807F7B
:1009CC0001D301230FE00A4A7B68013B53600F21DE
:1009DC004FF0FF30FFF790FF054B00229A60044B5D
:1009EC0007221A60002318460837BD4680BD00BF99
:1009FC0010E000E080B582B000AF78607B68072B18
:100A0C000FD07B68062B0CD07B68052B09D07B683C
:100A1C00042B06D07B68032B03D091210448FFF7ED
:100A2C0015FC7868FFF736FF00BF0837BD4680BD60
:100A3C00780B000880B586B000AF0346B9607A60C9
:100A4C00FB7300237B617B680F2B03D9A9210E4814
:100A5C00FFF7FCFBBB680F2B03D9AA210A48FFF751
:100A6C00F5FBFFF73BFF78617A68B9687869FFF7A7
:100A7C006DFF024697F90F3011461846FFF73CFF01
:100A8C0000BF1837BD4680BD780B000880B582B01A
:100A9C0000AF78607868FFF78BFF0346184608377D
:100AAC00BD4680BD80B400AF00BFBD4680BC704762
:100ABC00FFF7F8FF0B480C490C4A002302E0D4580E
:100ACC00C4500433C4188C42F9D3094A094C00238E
:100ADC0001E013600432A242FBD3FFF757FBFFF790
:100AEC007FFB7047000000200C000020D80B000892
:100AFC000C0000202C000020FEE70000F8B500BF21
:100B0C00F8BC08BC9E467047F8B500BFF8BC08BCE2
:040B1C009E4670473A
:100B2000433A2F55736572732F6D616368762F7228
:100B300065706F732F6D6C696F742D656D62656480
:100B4000646564632D323032362D68772F776565A2
:100B50006B30342F736F757263652F5461736B3311
:100B60002F73746D3332663178785F68616C5F67BC
:100B700070696F2E63000000433A2F5573657273DE
:100B80002F6D616368762F7265706F732F6D6C695E
:100B90006F742D656D626564646564632D323032F7
:100BA000362D68772F7765656B30342F736F7572CC
:100BB00063652F5461736B332F73746D33326631F9
:100BC00078785F68616C5F636F727465782E63001C
:040BD00075010008A3
:040BD4004D010008C7
:0C0BD800100000000100000000127A0074
:0400000508000ABD28
:00000001FF
